:020000040800F2
:10000000001000208D040008550400085B0400085F
:1000100000000000000000000000000000000000E0
:100020000000000000000000000000006104000863
:1000300000000000000000006B04000875040008C8
:10004000DD04000800000000DD040008DD040008F5
:10005000DD040008DD040008DD040008DD040008FC
:1000600000000000DD040008DD040008DD040008D5
:10007000DD040008DD040008DD04000800000000C5
:10008000DD0400080000000000000000DD0400089E
:1000900000000000DD040008DD040008DD040008A5
:1000A00000000000DD04000800000000DD0400087E
:1000B0000000000000000000000000000000000040
:1000C00010B5064C2378002B07D1054B002B02D02E
:1000D000044800E000BF0123237010BD0C00002085
:1000E0000000000058130008044B10B5002B03D08B
:1000F0000349044800E000BF10BDC04600000000F6
:100100001000002058130008002243088B4274D3CB
:1001100003098B425FD3030A8B4244D3030B8B4208
:1001200028D3030C8B420DD3FF22090212BA030C11
:100130008B4202D31212090265D0030B8B4219D3F2
:1001400000E0090AC30B8B4201D3CB03C01A524112
:10015000830B8B4201D38B03C01A5241430B8B425A
:1001600001D34B03C01A5241030B8B4201D30B0343
:10017000C01A5241C30A8B4201D3CB02C01A52416A
:10018000830A8B4201D38B02C01A5241430A8B422D
:1001900001D34B02C01A5241030A8B4201D30B0216
:1001A000C01A5241CDD2C3098B4201D3CB01C01A30
:1001B000524183098B4201D38B01C01A524143093A
:1001C0008B4201D34B01C01A524103098B4201D328
:1001D0000B01C01A5241C3088B4201D3CB00C01A95
:1001E000524183088B4201D38B00C01A524143080D
:1001F0008B4201D34B00C01A5241411A00D2014632
:10020000524110467047FFE701B5002000F006F8A4
:1002100002BDC0460029F7D076E770477047C04658
:1002200080B500AF00F05CF900F052F800F08CF8F7
:1002300080239A009023DB051100180000F0D8FB02
:10024000031E08D18023D9009023DB05012218006A
:1002500000F0EBFB07E08023D9009023DB050022B0
:10026000180000F0E2FB80235A009023DB05110008
:10027000180000F0BDFB031E08D180231901902354
:10028000DB050122180000F0D0FB07E080231901F4
:100290009023DB050022180000F0C7FB9023DB054C
:1002A0008021180000F0A4FB031E08D1802359010F
:1002B0009023DB050122180000F0B7FBB8E780238C
:1002C00059019023DB050022180000F0AEFBAFE7D8
:1002D00090B591B000AF10243B19180030231A00DC
:1002E000002101F031F83B00180010231A00002112
:1002F00001F02AF83B1901221A603B1901225A60C9
:100300003B1900221A623B19180000F0ABFB031ED8
:1003100001D000F075F83B0007221A603B00012273
:100320005A603B0000229A603B000022DA603B00EA
:100330000021180000F0B0FE031E01D000F060F8AC
:10034000C046BD4611B090BD90B589B000AF0C2439
:100350003B19180014231A00002100F0F5FF274B69
:100360005A69264B8021C9030A435A61234B5A69B3
:100370008023DB031340BB60BB68204B5A691F4BD3
:10038000802189020A435A611C4B5A6980239B02CF
:1003900013407B607B68E02359019023DB0500223A
:1003A000180000F042FB3B19E02292001A603B1952
:1003B00000225A603B1901229A603A199023DB050A
:1003C0001100180000F0A4F921007B18E02252016E
:1003D0001A607B1801225A607B1800229A607B18F1
:1003E0000022DA607A189023DB051100180000F073
:1003F0008FF9C046BD4609B090BDC046001002400E
:1004000080B500AF72B6C046FEE7000080B582B08E
:1004100000AF0F4B9A690E4B01210A439A610C4BB6
:100420009B69012213407B607B68094BDA69084BAA
:10043000802149050A43DA61054BDA6980235B05AF
:1004400013403B603B68C046BD4602B080BDC0461D
:100450000010024080B500AFFEE780B500AFFEE7B8
:1004600080B500AFC046BD4680BD80B500AFC04678
:10047000BD4680BD80B500AF00F07AF8C046BD46ED
:1004800080BD80B500AFC046BD4680BD0D488546E5
:100490000D480E490E4A002302E0D458C4500433DC
:1004A000C4188C42F9D30B4A0B4C002301E01360B3
:1004B0000432A242FBD3FFF7E4FF00F021FFFFF775
:1004C000AFFEFEE700100020000000200C0000201E
:1004D000A81300080C0000202C000020FEE70000FC
:1004E00080B500AF074B1A68064B10210A431A600B
:1004F000032000F009F8FFF789FF00231800BD462C
:1005000080BDC0460020024090B583B000AF786047
:10051000144B1C68144B1B781900FA239800FFF742
:10052000F3FD030019002000FFF7EEFD03001800A3
:1005300000F0E1F8031E01D001230FE07B68032BDC
:100540000BD8796801235B420022180000F0BEF846
:10055000064B7A681A60002300E001231800BD46AC
:1005600003B090BD0000002008000020040000201F
:1005700080B500AF054B1B781A00054B1B68D218DD
:10058000034B1A60C046BD4680BDC046080000202F
:100590002800002080B500AF024B1B681800BD4644
:1005A00080BDC0462800002090B583B000AF020097
:1005B0003960FB1D1A70FB1D1B787F2B28D82F4A32
:1005C000FB1D1B785BB29B08C0339B009B58FA1D38
:1005D0001278110003220A40D200FF2191400A0044
:1005E000D2431A4011003B689B01FF221A40FB1DB9
:1005F0001B78180003230340DB009A401F48FB1DB3
:100600001B785BB29B080A43C0339B001A5031E051
:100610001B4AFB1D1B7819000F230B40083B9B084E
:1006200006339B00D31804331B68FA1D127811009F
:1006300003220A40D200FF2191400A00D2431A400F
:1006400011003B689B01FF221A40FB1D1B7818001C
:1006500003230340DB009A400948FB1D1B781C0064
:100660000F232340083B9B080A4306339B00C31813
:1006700004331A60C046BD4603B090BD00E100E0FF
:1006800000ED00E080B582B000AF78607B685A1E54
:1006900080235B049A4201D3012310E00A4B7A685D
:1006A000013A5A6001235B4203211800FFF77CFFE7
:1006B000054B00229A60044B07221A6000231800A1
:1006C000BD4602B080BDC04610E000E080B584B0F9
:1006D00000AFB9607A600F217B18021C1A70BA68EB
:1006E0007B181B785BB211001800FFF75DFFC04656
:1006F000BD4604B080BD80B582B000AF78607B6835
:100700001800FFF7BFFF03001800BD4602B080BD10
:1007100080B586B000AF7860396000237B614FE11F
:100720003B681B6801217A6991400A001340FB6015
:10073000FB68002B00D140E13B685B68032213405B
:10074000012B05D03B685B6803221340022B30D19C
:100750007B689B683B617B695B0003229A401300C6
:10076000DA433B6913403B613B68DA687B695B00B5
:100770009A4013003A6913433B617B683A699A6077
:100780007B685B683B6101227B699A401300DA4316
:100790003B6913403B613B685B681B0901221A40BF
:1007A0007B699A4013003A6913433B617B683A695D
:1007B0005A603B685B6803221340032B17D07B68A9
:1007C000DB683B617B695B0003229A401300DA43DC
:1007D0003B6913403B613B689A687B695B009A40C8
:1007E00013003A6913433B617B683A69DA603B68FE
:1007F0005B6803221340022B23D17B69DA087B68F4
:1008000008329200D3583B617B69072213409B005A
:100810000F229A401300DA433B6913403B613B6867
:100820001A697B6907210B409B009A4013003A69C3
:1008300013433B617B69DA087B68083292003969AF
:10084000D1507B681B683B617B695B0003229A4047
:100850001300DA433B6913403B613B685B6803224A
:100860001A407B695B009A4013003A6913433B616D
:100870007B683A691A603B685A68C0239B02134040
:1008800000D19AE0544B9A69534B01210A439A6173
:10089000514B9B6901221340BB60BB684F4A7B6987
:1008A0009B0802339B009B583B617B6903221340EA
:1008B0009B000F229A401300DA433B6913403B61CF
:1008C0007A689023DB059A4213D07B68444A9342AE
:1008D0000DD07B68434A934207D07B68424A9342DB
:1008E00001D1032306E0052304E0022302E00123F3
:1008F00000E000237A6903210A40920093403A699C
:1009000013433B6135497B699B0802339B003A697D
:100910005A50364B1B683B61FB68DA433B69134016
:100920003B613B685A6880235B02134003D03A69FD
:10093000FB6813433B612D4B3A691A602B4B5B6894
:100940003B61FB68DA433B6913403B613B685A6893
:1009500080239B02134003D03A69FB6813433B6139
:10096000224B3A695A60214B9B683B61FB68DA4332
:100970003B6913403B613B685A6880235B0313402B
:1009800003D03A69FB6813433B61184B3A699A609C
:10099000164BDB683B61FB68DA433B6913403B6104
:1009A0003B685A6880239B03134003D03A69FB6875
:1009B00013433B610D4B3A69DA607B6901337B611C
:1009C0003B681A687B69DA40131E00D0A8E6C0466F
:1009D000C046BD4606B080BD001002400000014088
:1009E0000004004800080048000C004800040140D2
:1009F00080B584B000AF78600A00BB1C1A807B68A9
:100A00001B69BA1C1288134004D00F23FB18012263
:100A10001A7003E00F23FB1800221A700F23FB1833
:100A20001B781800BD4604B080BD80B582B000AF11
:100A3000786008001100BB1C021C1A807B1C0A1C79
:100A40001A707B1C1B78002B04D0BB1C1A887B6897
:100A50009A6103E0BB1C1A887B689A62C046BD4657
:100A600002B080BD80B588B000AF78607B68002B95
:100A700001D1012301E37B681B680122134000D1EF
:100A80008DE0C34B5B680C221340042B0ED0C04B8F
:100A90005B680C221340082B16D1BD4B5A6880238B
:100AA0005B021A4080235B029A420DD1B84B1A6850
:100AB00080239B02134000D170E07B685B68002BB1
:100AC00000D06BE00123D8E27B685B68012B07D183
:100AD000AF4B1A68AE4B802149020A431A602FE0DF
:100AE0007B685B68002B0CD1A94B1A68A84BA949FD
:100AF0000A401A60A64B1A68A54BA7490A401A601B
:100B00001EE07B685B68052B0ED1A14B1A68A04BD9
:100B10008021C9020A431A609D4B1A689C4B8021B0
:100B200049020A431A600BE0994B1A68984B99499D
:100B30000A401A60964B1A68954B97490A401A600A
:100B40007B685B68002B14D0FFF724FD0300BB61BA
:100B500008E0FFF71FFD0200BB69D31A642B01D91F
:100B600003238AE28A4B1A6880239B021340F0D049
:100B700015E0FFF70FFD0300BB6108E0FFF70AFD7A
:100B80000200BB69D31A642B01D9032375E2804BA1
:100B90001A6880239B021340F0D100E0C0467B68B6
:100BA0001B680222134000D169E0794B5B680C227C
:100BB00013400BD0764B5B680C221340082B1CD1E2
:100BC000734B5A6880235B02134016D1704B1B682D
:100BD0000222134005D07B68DB68012B01D0012382
:100BE0004BE26B4B1B68F822934319007B681B692F
:100BF000DA00674B0A431A6041E07B68DB68002B30
:100C000024D0634B1A68624B01210A431A60FFF734
:100C1000C1FC0300BB6108E0FFF7BCFC0200BB693C
:100C2000D31A022B01D9032327E2594B1B68022256
:100C30001340F1D0564B1B68F822934319007B6890
:100C40001B69DA00524B0A431A6018E0504B1A68CD
:100C50004F4B01218A431A60FFF79CFC0300BB61E4
:100C600008E0FFF797FC0200BB69D31A022B01D9F9
:100C7000032302E2464B1B6802221340F1D17B683A
:100C80001B680822134036D07B68DB69002B19D023
:100C90003F4B5A6A3E4B01210A435A62FFF77AFCE6
:100CA0000300BB6108E0FFF775FC0200BB69D31AC3
:100CB000022B01D90323E0E1354B5B6A022213408A
:100CC000F1D018E0324B5A6A314B01218A435A6203
:100CD000FFF760FC0300BB6108E0FFF75BFC02006C
:100CE000BB69D31A022B01D90323C6E1284B5B6AE7
:100CF00002221340F1D17B681B680422134000D10B
:100D0000B4E01F203B1800221A70214BDA698023BF
:100D10005B05134010D11E4BDA691D4B802149053C
:100D20000A43DA611A4BDA6980235B051340FB60E2
:100D3000FB683B1801221A70184B1A6880235B006D
:100D400013401AD1154B1A68144B802149000A43ED
:100D50001A60FFF71FFC0300BB6108E0FFF71AFCF5
:100D60000200BB69D31A642B01D9032385E10B4B25
:100D70001A6880235B001340F0D07B689B68012BCE
:100D80000ED1034B1A6A024B01210A431A6235E065
:100D900000100240FFFFFEFFFFFFFBFF007000405E
:100DA0007B689B68002B0CD1B64B1A6AB54B0121AE
:100DB0008A431A62B34B1A6AB24B04218A431A62FD
:100DC0001CE07B689B68052B0CD1AE4B1A6AAD4BBF
:100DD00004210A431A62AB4B1A6AAA4B01210A4347
:100DE0001A620BE0A74B1A6AA64B01218A431A62CA
:100DF000A44B1A6AA34B04218A431A627B689B683E
:100E0000002B14D0FFF7C6FB0300BB6109E0FFF71E
:100E1000C1FB0200BB69D31A9B4A934201D9032349
:100E20002BE1984B1B6A02221340F0D013E0FFF72E
:100E3000B1FB0300BB6109E0FFF7ACFB0200BB693B
:100E4000D31A914A934201D9032316E18D4B1B6AB1
:100E500002221340F0D11F23FB181B78012B05D170
:100E6000884BDA69874B89490A40DA617B681B68DD
:100E70001022134063D07B685B69012B2AD1814B20
:100E80005A6B804B04210A435A637E4B5A6B7D4B4D
:100E900001210A435A63FFF77DFB0300BB6108E0B1
:100EA000FFF778FB0200BB69D31A022B01D9032399
:100EB000E3E0744B5B6B02221340F1D0714B5B6B30
:100EC000F822934319007B689B69DA006D4B0A4353
:100ED0005A6334E07B685B69053311D1694B5A6B07
:100EE000684B04218A435A63664B5B6BF822934339
:100EF00019007B689B69DA00624B0A435A631EE063
:100F0000604B5A6B5F4B04210A435A635D4B5A6B2B
:100F10005C4B01218A435A63FFF73CFB0300BB6132
:100F200008E0FFF737FB0200BB69D31A022B01D997
:100F30000323A2E0534B5B6B02221340F1D17B6889
:100F40001B6A002B00D197E04E4B5B680C221340CC
:100F5000082B00D16BE07B681B6A022B4CD1494BFC
:100F60001A68484B4A490A401A60FFF713FB03000E
:100F7000BB6108E0FFF70EFB0200BB69D31A022B2E
:100F800001D9032379E03F4B1A6880239B04134067
:100F9000F0D13C4BDB6A0F22934319007B68DA6A7D
:100FA000384B0A43DA62374B5B683A4A1340190000
:100FB0007B689A6A7B685B6A1A43324B0A435A60C1
:100FC000304B1A682F4B802149040A431A60FFF7FF
:100FD000E1FA0300BB6108E0FFF7DCFA0200BB693D
:100FE000D31A022B01D9032347E0264B1A6880232A
:100FF0009B041340F0D03FE0224B1A68214B244958
:101000000A401A60FFF7C6FA0300BB6108E0FFF769
:10101000C1FA0200BB69D31A022B01D903232CE0C9
:10102000184B1A6880239B041340F0D124E07B689E
:101030001B6A012B01D101231FE0124B5B687B610E
:10104000104BDB6A3B617A6980235B021A407B6844
:101050005B6A9A420ED13B690F221A407B68DB6AB9
:101060009A4207D17A69F0239B031A407B689B6AF6
:101070009A4201D0012300E000231800BD4608B0C9
:1010800080BDC0460010024088130000FFFFFFEF44
:10109000FFFFFFFEFFFFC2FF80B584B000AF7860A6
:1010A00039607B68002B01D10123B3E05B4B1B68E7
:1010B000012213403A689A4211D9584B1B68012209
:1010C00093431900554B3A680A431A60534B1B6807
:1010D000012213403A689A4201D001239AE07B68CA
:1010E0001B680222134015D07B681B680422134042
:1010F00006D04B4B5A684A4BE021C9000A435A605C
:10110000474B5B68F022934319007B689A68444B15
:101110000A435A607B681B680122134040D07B68F9
:101120005B68012B07D13E4B1A6880239B0213405A
:1011300014D101236EE07B685B68022B07D1384B2A
:101140001A6880239B04134008D1012362E0344BCA
:101150001B680222134001D101235BE0304B5B6826
:101160000322934319007B685A682D4B0A435A6047
:10117000FFF710FA0300FB6009E0FFF70BFA02002B
:10118000FB68D31A274A934201D9032342E0244B38
:101190005B680C221A407B685B689B009A42ECD12A
:1011A0001E4B1B68012213403A689A4211D21B4B16
:1011B0001B68012293431900184B3A680A431A60CE
:1011C000164B1B68012213403A689A4201D0012352
:1011D00020E07B681B680422134009D0104B5B6839
:1011E000114A134019007B68DA680D4B0A435A60B4
:1011F00000F020F801000A4B5B681B090F22134026
:101200000A4AD35C0A00DA40094B1A600320FFF750
:101210007BF900231800BD4604B080BD00200240C9
:101220000010024088130000FFF8FFFF9013000831
:101230000000002090B58FB000AF1423FB182B4A9C
:1012400013CA13C312681A603B1D294A13CA13C379
:1012500012681A600023FB620023BB6200237B63D9
:1012600000237B6200233B63224B5B68FB62FB6ACB
:101270000C221340042B02D0082B03D02DE01E4B70
:101280003B632DE0FB6A9B0C0F2213401422BA181B
:10129000D35C7B62174BDB6A0F2213403A1DD35C91
:1012A000BB62FA6A80235B02134009D0B96A124814
:1012B000FEF72AFF03001A007B6A53437B6309E0B1
:1012C000796A0A005201521A93019B1ADB005B18DB
:1012D0001B027B637B6B3B6302E0084B3B63C046B6
:1012E0003B6B1800BD460FB090BDC04670130008A0
:1012F00080130008001002400024F40000127A005D
:1013000070B500260C4D0D4C641BA410A64209D1EB
:10131000002600F021F80A4D0A4C641BA410A642D6
:1013200005D170BDB300EB5898470136EEE7B30026
:10133000EB5898470136F2E7A0130008A013000805
:10134000A0130008A413000803008218934200D1E0
:10135000704719700133F9E7F8B5C046F8BC08BC0E
:101360009E467047F8B5C046F8BC08BC9E4670471C
:1013700002030405060708090A0B0C0D0E0F1010D6
:101380000102030405060708090A0B0C0D0E0F10D5
:101390000000000000000000010203040607080925
:0413A000E900000858
:0413A400C10000087C
:0C13A80000127A000400000001000000A8
:040000050800048D5E
:00000001FF
